:020000040800F2
:10000000000002206D370008A1090008A3090008BC
:10001000A5090008A7090008A909000800000000B8
:10002000000000000000000000000000A1340008F3
:10003000AB09000800000000413500082F3000081F
:10004000BD370008BD370008BD370008BD370008C0
:10005000BD370008BD370008BD370008BD370008B0
:10006000BD370008BD370008BD370008BD370008A0
:10007000BD370008BD370008BD370008BD37000890
:10008000BD370008BD370008BD370008BD37000880
:10009000BD370008BD370008BD370008BD37000870
:1000A000BD370008BD370008BD370008BD37000860
:1000B000BD370008BD370008BD370008BD37000850
:1000C000BD370008BD370008BD370008BD37000840
:1000D000BD370008BD370008BD370008BD37000830
:1000E000BD370008BD370008BD370008BD37000820
:1000F000BD370008AD090008BD370008BD3700084E
:10010000BD370008BD370008BD370008BD370008FF
:10011000BD370008BD370008BD370008BD370008EF
:10012000BD370008BD370008BD370008BD370008DF
:10013000BD370008BD370008BD370008BD370008CF
:10014000BD370008BD370008BD370008BD370008BF
:10015000BD370008BD370008BD370008BD370008AF
:10016000BD370008BD370008BD370008BD3700089F
:10017000BD370008BD370008BD370008000000008B
:08018000BD370008BD3700087F
:1001900010B5054C237833B9044B13B10448AFF3C1
:1001A00000800123237010BD10000020000000001B
:1001B0003438000808B5034B1BB103490348AFF3BB
:1001C000008008BD00000000140000203438000842
:1001D00053B94AB9002908BF00281CBF4FF0FF31AE
:1001E0004FF0FF3000F074B9ADF1080C6DE904CEAA
:1001F00000F006F8DDF804E0DDE9022304B0704702
:100200002DE9F047089D04468E46002B4DD18A42C9
:10021000944669D9B2FA82F252B101FA02F3C2F1FC
:10022000200120FA01F10CFA02FC41EA030E94408D
:100230004FEA1C48210CBEFBF8F61FFA8CF708FBAE
:1002400016E341EA034306FB07F199420AD91CEB86
:10025000030306F1FF3080F01F81994240F21C81B8
:10026000023E63445B1AA4B2B3FBF8F008FB103300
:1002700044EA034400FB07F7A7420AD91CEB040435
:1002800000F1FF3380F00A81A74240F20781644405
:10029000023840EA0640E41B00261DB1D44000238A
:1002A000C5E900433146BDE8F0878B4209D9002DEE
:1002B00000F0EF800026C5E9000130463146BDE878
:1002C000F087B3FA83F6002E4AD18B4202D38242E2
:1002D00000F2F980841A61EB030301209E46002D91
:1002E000E0D0C5E9004EDDE702B9FFDEB2FA82F2E6
:1002F000002A40F09280A1EB0C014FEA1C471FFA44
:100300008CFE0126200CB1FBF7F307FB131140EA2A
:1003100001410EFB03F0884208D91CEB010103F1F7
:10032000FF3802D2884200F2CB804346091AA4B2B9
:10033000B1FBF7F007FB101144EA01440EFB00FE8D
:10034000A64508D91CEB040400F1FF3102D2A645F2
:1003500000F2BB800846A4EB0E0440EA03409CE791
:10036000C6F12007B34022FA07FC4CEA030C20FA3E
:1003700007F401FA06F31C43F9404FEA1C4900FA5E
:1003800006F3B1FBF9F8200C1FFA8CFE09FB1811DB
:1003900040EA014108FB0EF0884202FA06F20BD94E
:1003A0001CEB010108F1FF3A80F08880884240F29E
:1003B0008580A8F102086144091AA4B2B1FBF9F0E2
:1003C00009FB101144EA014100FB0EFE8E4508D9DD
:1003D0001CEB010100F1FF346CD28E456AD9023862
:1003E000614440EA0840A0FB0294A1EB0E01A14247
:1003F000C846A64656D353D05DB1B3EB080261EBB5
:100400000E0101FA07F722FA06F3F1401F43C5E98E
:10041000007100263146BDE8F087C2F12003D840C4
:100420000CFA02FC21FA03F3914001434FEA1C4706
:100430001FFA8CFEB3FBF7F007FB10360B0C43EAF8
:10044000064300FB0EF69E4204FA02F408D91CEBA8
:10045000030300F1FF382FD29E422DD902386344A6
:100460009B1B89B2B3FBF7F607FB163341EA034146
:1004700006FB0EF38B4208D91CEB010106F1FF3895
:1004800016D28B4214D9023E6144C91A46EA00468C
:1004900038E72E46284605E70646E3E61846F8E61E
:1004A0004B45A9D2B9EB020864EB0C0E0138A3E767
:1004B0004646EAE7204694E74046D1E7D0467BE748
:1004C000023B614432E7304609E76444023842E7C0
:1004D000704700BF08B50268034B9A4200D008BDC0
:1004E00001F018F8FBE700BF0020004072B6FEE7FD
:1004F00000B595B03022002108A803F093F900233D
:100500000393049305930693079301931F4A116C79
:1005100041F080511164126C02F080520192019AF4
:1005200002931B4B1A6842F480421A601B6803F462
:1005300080430293029B012308934FF48033099375
:1005400002230E934FF480020F920F22109260222A
:10055000119212930423139308A800F035FB80B97D
:100560000F23039302210491002305934FF480533A
:100570000693079303A800F075FD20B915B05DF848
:1005800004FBFFF7B3FFFFF7B1FF00BF00380240E5
:100590000070004008B500F0A3FFFFF7A9FF00F0CE
:1005A00013F800F04DF800F067F800F003F900F0E0
:1005B00029F900F04FF900F08BF902F045FD00F049
:1005C0002FF802F053FDFEE784B000220192104B99
:1005D000196B41F002011963196B01F002010191DD
:1005E00001990292196B41F001011963196B01F035
:1005F00001010291029903921A6B42F080021A6380
:100600001B6B03F080030393039B04B0704700BF90
:100610000038024008B5012002F0A2FDFBE700000F
:1006200008B5044A0021044802F03CFD034B186061
:1006300008BD00BF58380008150600082C0000202F
:1006400008B50B480B4B0360102343600023836005
:10065000C36003614361037643768376C376037791
:10066000437700F00BFA00B908BDFFF73FFFFBE747
:10067000340000200064004008B50B480B4B0360B9
:100680001023436000238360C360036143610376EA
:1006900043768376C3760377437700F0EFF900B9AA
:1006A00008BDFFF723FFFBE75C0000200068004067
:1006B00000B58BB000230593069307930893099325
:1006C0000368374A934205D0364A93422FD00BB085
:1006D0005DF804FB344A136801331360012B19D011
:1006E00000230193314B1A6B42F002021A631B6B19
:1006F00003F002030193019B4FF44073059302231F
:100700000693032308930923099305A9284800F0B9
:100710009DFDDCE700230093244B1A6C42F000722D
:100720001A641B6C03F000730093009BD8E700234E
:1007300002931E4B1A6C42F080621A641B6C03F029
:1007400080630293029B184A136801331360012BE4
:1007500018D000230493154B1A6B42F002021A635F
:100760001B6B03F002030493049B60230593022395
:100770000693032308930923099305A90C4800F065
:1007800065FDA4E700230393084B1A6C42F0007246
:100790001A641B6C03F000730393039BD9E700BF3B
:1007A0000064004000680040300000200038024033
:1007B0000004024008B50548054B036000F0BCFE8C
:1007C00000B908BDFFF792FEFBE700BF84000020E0
:1007D000003002400268094B9A4200D0704782B054
:1007E00000230193064B1A6B42F480521A631B6B71
:1007F00003F480530193019B02B070470030024024
:100800000038024008B50548054B036000F0A3FE20
:1008100000B908BDFFF76AFEFBE700BF8C000020AF
:10082000000806500268094B9A4200D0704782B017
:1008300000230193064B5A6B42F040025A635B6BF4
:1008400003F040030193019B02B07047000806507B
:100850000038024000B583B00023009301930E4896
:100860000E4A0260436083604FF6FF72C26083618C
:1008700000F0F2FF50B90023009301936946064847
:1008800001F016F828B903B05DF804FBFFF72EFE5F
:10089000F1E7FFF72BFEF6E79C0000200010004078
:1008A0000268094B9A4200D0704782B0002301933E
:1008B000064B1A6C42F010021A641B6C03F0100312
:1008C0000193019B02B070470010004000380240C5
:1008D00008B50A480A4B03604FF4E1334360002334
:1008E0008360C36003610C2242618361C36101F0D4
:1008F000AFF800B908BDFFF7F9FDFBE7E400002001
:1009000000100140F0B589B00023039304930593D0
:1009100006930793026803F1804303F588339A42F4
:1009200001D009B0F0BD0024009403F594335A6C53
:1009300042F010025A645A6C02F010020092009ABF
:1009400001941A6B42F002021A631A6B02F002025F
:100950000192019A02941A6B42F001021A631B6B16
:1009600003F001030293029B802303930227049761
:10097000032606960725079503A9074800F066FC9D
:100980004FF400730393049705940696079503A903
:10099000024800F05BFCC4E7000402400000024093
:1009A000FEE7FEE7FEE7FEE7FEE7704708B5024810
:1009B00000F030FE08BD00BF2801002000B583B064
:1009C000002200920D4B596C41F480415964596CDE
:1009D00001F48041009100990192196C41F080511D
:1009E00019641B6C03F080530193019B0F216FF07E
:1009F000010000F02FFD03B05DF804FB0038024059
:100A000010B588B0014600222D2000F023FD2D20D6
:100A100000F058FD00240194144B1A6C42F48072CB
:100A20001A641B6C03F480730193019B02A903A851
:100A300000F0EEFB00F0CCFB43000D48A0FB0323CD
:100A40009B0C013B0B480C4A026040F2E732C2604B
:100A500043600461846000F0FFFE10B1012008B023
:100A600010BD044800F08EFDF9E700BF00380240D9
:100A700083DE1B432801002000200040002800F0F6
:100A8000A18038B5044690F82030D3B122681368AD
:100A900043F00103136000F049FD054623685A68DE
:100AA00012F0010F10D100F041FD401B0A28F5D9CA
:100AB000636A43F400336362052384F82030012025
:100AC00038BDFFF7F5FDE1E71A6822F002021A606F
:100AD00000F02CFD054623685A6812F0020F0DD075
:100AE00000F024FD401B0A28F5D9636A43F4003363
:100AF0006362052384F820300120E1E7227E012A89
:100B00003DD01A6822F080021A60637E012B3BD030
:100B10002268136823F040031360A37E012B39D0B1
:100B20002268136823F020031360E37E012B37D083
:100B30002268136843F010031360237F012B35D024
:100B40002268136823F008031360637F012B33D0FE
:100B50002268136823F004031360A368E268134358
:100B600022691343626913436268013A216813439F
:100B7000CB6100206062012384F82030A0E71A686E
:100B800042F080021A60C0E72268136843F0400315
:100B90001360C2E72268136843F020031360C4E7C0
:100BA0002268136823F010031360C6E722681368F5
:100BB00043F008031360C8E72268136843F0040396
:100BC0001360CAE701207047002800F0E08170B58B
:100BD00082B00446036813F0010F3BD09F4B9B6823
:100BE00003F00C03042B2CD09C4B9B6803F00C03EC
:100BF000082B21D06368B3F5803F4FD0B3F5A02F09
:100C000052D0964B1A6822F480321A601A6822F485
:100C100080221A606368002B50D000F087FC0546E4
:100C20008E4B1B6813F4003F14D100F07FFC401B77
:100C30006428F5D90320B1E1884B5B6813F4800F79
:100C4000D8D0864B1B6813F4003F03D06368002B99
:100C500000F09F81236813F0020F54D07F4B9B68F4
:100C600013F00C0F3ED07D4B9B6803F00C03082B58
:100C700033D0E368002B68D0794B01221A6000F072
:100C800055FC0546754B1B6813F0020F54D100F05C
:100C90004DFC401B0228F5D903207FE16F4A136801
:100CA00043F480331360B5E76C4B1A6842F480223A
:100CB0001A601A6842F480321A60ABE700F036FC22
:100CC0000546664B1B6813F4003FC3D000F02EFCB2
:100CD000401B6428F5D9032060E1604B5B6813F486
:100CE000800FC6D15D4B1B6813F0020F03D0E36881
:100CF000012B40F05081594A136823F0F803216911
:100D000043EAC1031360236813F0080F42D06369FC
:100D10006BB3534B0122C3F8802E00F007FC05464D
:100D20004E4B5B6F13F0020F34D100F0FFFB401B02
:100D30000228F5D9032031E1484A136823F0F8036B
:100D4000216943EAC1031360DDE7454B00221A60C5
:100D500000F0ECFB0546414B1B6813F0020FD2D0AC
:100D600000F0E4FB401B0228F5D9032016E13C4BC0
:100D70000022C3F8802E00F0D9FB0546374B5B6F8D
:100D800013F0020F06D000F0D1FB401B0228F5D96A
:100D9000032003E1236813F0040F77D02F4B1B6C63
:100DA00013F0805F33D1002301932C4B1A6C42F077
:100DB00080521A641B6C03F080530193019B012540
:100DC000284B1B6813F4807F23D0A368012B34D0F9
:100DD000052B38D0214B1A6F22F001021A671A6FC7
:100DE00022F004021A67A368002B3DD000F09EFB9E
:100DF00006461A4B1B6F13F0020F46D100F096FB0C
:100E0000801B41F288339842F3D90320C6E00025C5
:100E1000D6E7144A136843F48073136000F086FB2E
:100E20000646104B1B6813F4807FCED100F07EFB8A
:100E3000801B0228F5D90320B0E0084A136F43F065
:100E400001031367CFE7054B1A6F42F004021A67DC
:100E50001A6F42F001021A67C5E700BF003802406E
:100E6000000047420070004000F060FB0646524B15
:100E70001B6F13F0020F08D000F058FB801B41F2EB
:100E800088339842F3D9032088E0EDB9A369002B99
:100E900000F08380484A926802F00C02082A51D080
:100EA000022B17D0454B00221A6600F03FFB044688
:100EB000414B1B6813F0007F42D000F037FB001B52
:100EC0000228F5D9032069E03B4A136C23F08053D4
:100ED0001364DBE7394B00221A6600F027FB054656
:100EE000354B1B6813F0007F06D000F01FFB401B42
:100EF0000228F5D9032051E0E369226A1343626AAC
:100F000043EA8213A26A5208013A43EA0243E26AC0
:100F100043EA0263284A5360284B01221A6600F014
:100F200005FB0446244B1B6813F0007F06D100F03C
:100F3000FDFA001B0228F5D903202FE000202DE048
:100F400000202BE0012B2BD01B4B5B6803F48001AE
:100F5000E269914226D103F03F02216A8A4223D1FD
:100F6000616A47F6C0721A40B2EB811F1ED103F4CA
:100F70004031A26A5208013AB1EB024F18D103F096
:100F80007063E26AB3EB026F14D1002006E0012027
:100F90007047012002E0012000E0002002B070BD97
:100FA0000120FBE70120F9E70120F7E70120F5E741
:100FB0000120F3E70120F1E700380240000047423A
:100FC00008B5254B9B6803F00C03042B3FD0082B7E
:100FD0003FD1214B5A6802F03F025B6813F4800F47
:100FE00012D01D4B5968C1F388111C480023A1FB86
:100FF0000001FFF7EDF8184B5B68C3F301430133C1
:101000005B00B0FBF3F025E0134B5968C1F3881C7B
:101010004FEA4C11B1EB0C006EEB0E0E4FEA8E1343
:1010200043EA90638101091A63EB0E03DB0043EA94
:101030005173C90011EB0C0C43F10003990200231A
:101040004FEA8C2041EA9C51FFF7C2F8D3E70348EE
:1010500000E0034808BD00BF0038024040787D0131
:101060000024F400002800F09B8070B50D46044673
:101070004F4B1B6803F007038B4208D2CBB24C4A9C
:101080001370136803F007038B4240F08B802368D2
:1010900013F0020F17D013F0040F04D0454A9368E1
:1010A00043F4E0539360236813F0080F04D0414ADF
:1010B000936843F4604393603E4A936823F0F003DF
:1010C000A1680B439360236813F0010F32D063686B
:1010D000012B21D09A1E012A25D9364A126812F016
:1010E000020F61D033498A6822F0030213438B60F8
:1010F00000F01CFA06462F4B9B6803F00C03626855
:10110000B3EB820F16D000F011FA801B41F2883346
:101110009842F0D9032042E0264A126812F4003FB8
:10112000E0D101203BE0234A126812F0007FD9D1C0
:10113000012034E01E4B1B6803F00703AB4207D9C4
:10114000EAB21B4B1A701B6803F00703AB422DD1A8
:10115000236813F0040F06D0164A936823F4E05373
:10116000E1680B439360236813F0080F07D0114A1E
:10117000936823F46043216943EAC1039360FFF756
:101180001FFF0C4B9B68C3F303130B4AD35CD8407F
:101190000A4B18600A4B1868FFF732FC002070BD3C
:1011A000012070470120FAE70120F8E70120F6E767
:1011B000003C0240003802407C3800080800002053
:1011C00004000020014B1868704700BF0800002091
:1011D00008B5FFF7F7FF044B9B68C3F38223034A6C
:1011E000D35CD84008BD00BF003802408C380008EE
:1011F00008B5FFF7E7FF044B9B68C3F34233034A8C
:10120000D35CD84008BD00BF003802408C380008CD
:101210000F2303600B4B9A6802F0030242609A6846
:1012200002F0F00282609A6802F4E052C2609B68A9
:10123000DB0803F4E0530361034B1B6803F007036F
:101240000B60704700380240003C024000230F2B27
:1012500000F2E48070B582B060E085685E0003242F
:10126000B44025EA0405CC68B4402C43846045684A
:1012700025EA02054C68C4F300129A402A434260F2
:101280005AE0DC08083450F8246003F007029500A7
:101290000F22AA4026EA020E0A69AA4042EA0E027A
:1012A00040F824205CE0072200E0002202FA0EF25F
:1012B0002A4302345A4D45F824205A4A14686FEAEA
:1012C0000C0224EA0C054E6816F4803F01D04CEA6B
:1012D0000405544C2560646802EA04054E6816F45F
:1012E000003F01D04CEA04054E4C6560A46802EA58
:1012F00004054E6816F4801F01D04CEA0405494CE1
:10130000A560E46822404D6815F4001F01D04CEA46
:101310000402444CE26001330F2B7DD801229A4035
:101320000C6804EA020C32EA0404F4D14C6804F0BC
:101330000304013C012C90D94A6802F00302032AFD
:1013400009D0C4685D000322AA4024EA02048A6826
:10135000AA402243C2604A6802F00302022A90D0E7
:1013600004684FEA430E032202FA0EF224EA020452
:101370004A6802F0030202FA0EF2224302604A684F
:1013800012F4403FC7D000220192274A546C44F423
:1013900080445464526C02F480420192019A9C0889
:1013A000A51C1F4A52F8255003F003024FEA820E93
:1013B0000F2202FA0EF225EA02051C4A90423FF47F
:1013C00074AF02F5806290421AD002F580629042BA
:1013D00018D002F58062904216D002F580629042E9
:1013E00014D002F58062904212D002F580629042E1
:1013F00010D002F5806290423FF455AF082255E7C5
:10140000012253E7022251E703224FE704224DE76E
:1014100005224BE7062249E702B070BD704700BFC6
:1014200000380140003C014000380240000002400A
:10143000074AD36823F4E0631B041B0C000200F48A
:10144000E060034343F0BF6343F40033D36070476D
:1014500000ED00E000B5194BDB68C3F30223C3F1D4
:10146000070CBCF1040F28BF4FF0040C03F1040E6D
:10147000BEF1060F18D9033B4FF0FF3E0EFA0CFCED
:1014800021EA0C0199400EFA03F322EA03031943FF
:1014900000280BDB0901C9B200F1604000F5614092
:1014A00080F800135DF804FB0023E5E700F00F006F
:1014B0000901C9B2024B1954F4E700BF00ED00E086
:1014C00014ED00E0002807DB00F01F0240090123B3
:1014D0009340024A42F82030704700BF00E100E02C
:1014E00008B50B4B1A6842F400721A601A6842F48D
:1014F00080621A601A6842F480721A600320FFF753
:1015000097FF0F20FFF77CFAFFF758FA002008BD7D
:10151000003C0240034A1168034B1B780B441360E4
:10152000704700BF7001002000000020014B1868C8
:10153000704700BF7001002058B110B504464379D0
:101540001BB101236371002010BD0371FFF742F945
:10155000F7E70120704798B110B5044643795BB1B5
:10156000022363712268136843F0040313600123AC
:1015700063710020A06010BD0371FFF753F9EFE71E
:101580000120704790F83D30DBB2012B37D10223A8
:1015900080F83D300268D36843F00103D3600368EC
:1015A000194A934220D0B3F1804F1DD0A2F57C425E
:1015B000934219D002F58062934215D002F5806201
:1015C000934211D002F5784293420DD002F5705249
:1015D000934209D0A2F59432934205D01A6842F0A2
:1015E00001021A60002070479A6802F00702062A7A
:1015F00007D01A6842F001021A60002070470120EB
:1016000070470020704700BF0000014070477047DE
:101610007047704710B5044603681A6912F0020F4C
:1016200011D0DA6812F0020F0DD06FF002021A61C9
:101630000123037703689B6913F0030F70D0FFF752
:10164000E6FF0023237723681A6912F0040F12D0F3
:10165000DA6812F0040F0ED06FF004021A61022350
:10166000237723689B6913F4407F5FD02046FFF700
:10167000CEFF0023237723681A6912F0080F12D0D7
:10168000DA6812F0080F0ED06FF008021A61042316
:1016900023772368DB6913F0030F4ED02046FFF752
:1016A000B6FF0023237723681A6912F0100F12D0B7
:1016B000DA6812F0100F0ED06FF010021A610823D2
:1016C00023772368DB6913F4407F3DD02046FFF782
:1016D0009EFF0023237723681A6912F0010F03D0BD
:1016E000DA6812F0010F36D123681A6912F0800F00
:1016F00003D0DA6812F0800F34D123681A6912F02F
:10170000400F03D0DA6812F0400F32D123681A6913
:1017100012F0200F03D0DA6812F0200F30D110BD84
:10172000FFF774FF2046FFF773FF8AE72046FFF7B5
:101730006DFF2046FFF76CFF9BE72046FFF766FF33
:101740002046FFF765FFACE72046FFF75FFF204626
:10175000FFF75EFFBDE76FF001021A612046FEF75A
:10176000B9FEC1E76FF080021A61204600F0E7F889
:10177000C3E76FF040021A612046FFF74AFFC5E752
:101780006FF020021A61204600F0D8F8C7E7000089
:101790000368304A904212D0B0F1804F0FD0A2F5CA
:1017A0007C4290420BD002F58062904207D002F555
:1017B0008062904203D002F57842904203D123F038
:1017C00070034A681343234A90422AD0B0F1804FF5
:1017D00027D0A2F57C42904223D002F5806290424D
:1017E0001FD002F5806290421BD002F578429042F1
:1017F00017D002F57052904213D002F580629042E9
:101800000FD002F5806290420BD0A2F59832904240
:1018100007D002F58062904203D002F580629042C8
:1018200003D123F44073CA68134323F080034A6949
:10183000134303608B68C3620B688362054B984255
:1018400003D003F58063984201D10B690363012340
:10185000436170470000014040B310B5044690F862
:101860003D30F3B1022384F83D30214651F8040B9A
:10187000FFF78EFF012384F8463084F83E3084F869
:101880003F3084F8403084F8413084F8423084F8A6
:10189000433084F8443084F8453084F83D300020EB
:1018A00010BD80F83C30FEF7FBFFDBE701207047FE
:1018B00090F83C30012B3DD010B4012380F83C302F
:1018C000022380F83D3003685A689C6822F0700C4F
:1018D0000A6842EA0C025A600368174A93421AD017
:1018E000B3F1804F17D0A2F57C42934213D002F59A
:1018F000806293420FD002F5806293420BD002F5D2
:101900007842934207D002F57052934203D0A2F579
:101910009432934204D124F080044A6814439C60BA
:10192000012380F83D30002380F83C3018465DF8F4
:10193000044B704702207047000001407047704719
:1019400038B504460268136923F44053C1680B4359
:10195000136183680269134342691343C2691A43DE
:101960000168CB6823F4164323F00C031343CB60C8
:101970000268536923F4407381690B435361036820
:10198000314A934206D002F58062934202D0FFF7BB
:101990001FFC01E0FFF72CFCE369B3F5004F29D0F1
:1019A0000021031849411B1841F10001C90041EA17
:1019B0005371DB00181863684FEA83024FEA937390
:1019C00041F10001FEF704FC204DA5FB0032510956
:1019D000642303FB11031B013233A5FB03235B09C3
:1019E00003F0F00202EB011203F00F03216813442D
:1019F0008B6038BD0023021843EB0301121841F13C
:101A00000001C90041EA5271D200101841F10001F1
:101A1000626892185B41FEF7DBFB0C4DA5FB0032C0
:101A20005109642303FB1103DB003233A5FB0323BD
:101A30005B095A0002F4F87202EB011203F007038B
:101A4000216813448B60D4E7001001401F85EB51DF
:101A500058B310B5044690F83D300BB3242384F8F6
:101A60003D302268D36823F40053D3602046FFF74B
:101A700067FF2268136923F4904313612268536956
:101A800023F02A0353612268D36843F40053D360E0
:101A900000202064202384F83D3084F83E3010BDBF
:101AA00080F83C30FEF72EFFD8E701207047000099
:101AB000034AD2F8883043F47003C2F88830704784
:101AC00000ED00E000F1080343604FF0FF32826058
:101AD000C360036100230360704700230361704704
:101AE00043684B609A688A60516099600861036836
:101AF00001330360704730B40D68B5F1FF3F11D07A
:101B000000F108031C465B681A68AA42FAD96368A8
:101B10004B6099608C606160086103680133036009
:101B200030BC70470469F2E70369416882688A60E3
:101B3000416851605A68824206D0002202611A68E8
:101B4000013A1A601868704782685A60F5E710B564
:101B5000044601F0B7FCA26BE36B9A4204D0002468
:101B600001F0D2FC204610BD0124F9E710B504466F
:101B700001F0A8FCA36B23B9012401F0C5FC2046A9
:101B800010BD0024F9E770B504461546866B026C5B
:101B90005AB903681BB100200136A66370BD806886
:101BA00000F0D4FF0023A360F6E76DB9406801F0B0
:101BB0002BFE226C636813446360A268934219D3BE
:101BC000236863602846E7E7C06801F01DFE226CC9
:101BD0005142E3689B1AE3602268934202D2A368F1
:101BE0000B44E360022D01D00020D5E726B1013E71
:101BF0000020D1E72846CFE70020CDE70346026C5E
:101C00006AB110B50846D9681144D9609C68A142F0
:101C100001D31968D960D96801F0F6FD10BD70478D
:101C200038B5054601F04EFC95F8454064B201E038
:101C3000013C64B2002C0ADD6B6A43B105F124005B
:101C400000F0DAFE0028F3D000F06AFFF0E7FF238F
:101C500085F8453001F058FC01F034FC95F844401B
:101C600064B201E0013C64B2002C0ADD2B6943B18F
:101C700005F1100000F0C0FE0028F3D000F050FF86
:101C8000F0E7FF2385F8443001F03EFC38BD38B55D
:101C9000E0B10D46044601F015FC2368E26B216CAF
:101CA00001FB0230A0600020A0636360013A02FBE8
:101CB0000133E360FF2384F8443084F84530FDB9F4
:101CC000236963B901F020FC012038BD4FF05003B7
:101CD00083F31188BFF36F8FBFF34F8FFEE704F1DB
:101CE000100000F089FE0028ECD04FF0E0234FF008
:101CF0008052C3F8042DBFF34F8FBFF36F8FE1E71E
:101D000004F11000FFF7DEFE04F12400FFF7DAFE15
:101D1000D8E738B51D46049C0B4649B92460E063FA
:101D2000236401212046FFF7B2FF84F84C5038BDF0
:101D30002260F4E740B94FF0500383F31188BFF3FA
:101D40006F8FBFF34F8FFEE710B584B01C468446FB
:101D500053B192B189B94FF0500383F31188BFF3A7
:101D60006F8FBFF34F8FFEE74FF0500383F311885F
:101D7000BFF36F8FBFF34F8FFEE76AB1502303931A
:101D8000039B502B13D04FF0500383F31188BFF304
:101D90006F8FBFF34F8FFEE70029EFD04FF0500356
:101DA00083F31188BFF36F8FBFF34F8FFEE7039B61
:101DB000012384F8463000949DF818306046FFF700
:101DC000A8FF204604B010BDF0B585B0019288B1DF
:101DD0000F461D460446B1B1022D20D1E36B012B05
:101DE0001DD04FF0500383F31188BFF36F8FBFF303
:101DF0004F8FFEE74FF0500383F31188BFF36F8FCF
:101E0000BFF34F8FFEE7036C002BE5D04FF050037C
:101E100083F31188BFF36F8FBFF34F8FFEE700F09E
:101E200085FE064658B9019B002B48D04FF0500361
:101E300083F31188BFF36F8FBFF34F8FFEE7002648
:101E40003DE02A4639462046FFF79DFE636A7BB98E
:101E500048B14FF0E0234FF08052C3F8042DBFF398
:101E60004F8FBFF36F8F01F04FFB012005B0F0BD26
:101E700004F1240000F0C0FD0028F4D04FF0E0236E
:101E80004FF08052C3F8042DBFF34F8FBFF36F8F15
:101E9000E9E701F039FB0020E8E702A800F0F2FDD5
:101EA000012619E0002384F8443021E0002384F85F
:101EB000453023E02046FFF7B3FE00F07DFC01F043
:101EC00001FBA26BE36B9A42BBD3022DB9D0019BFD
:101ED000002BDED0002EE0D001F016FB00F0D2FB8C
:101EE00001F0F0FA94F8442052B2B2F1FF3FD9D099
:101EF00094F8452052B2B2F1FF3FD7D001F004FB75
:101F000001A902A800F0CAFDD8B92046FFF71FFEBC
:101F10000028CFD0019904F1100000F039FD2046CF
:101F2000FFF77EFE00F048FC0028C8D14FF0E02308
:101F30004FF08052C3F8042DBFF34F8FBFF36F8F64
:101F4000BDE72046FFF76CFE00F036FC00208DE771
:101F50002DE9F84390B10F4616461C460546B1B12F
:101F6000022C20D1EB6B012B1DD04FF0500383F3DB
:101F70001188BFF36F8FBFF34F8FFEE74FF0500311
:101F800083F31188BFF36F8FBFF34F8FFEE7036CAE
:101F9000002BE5D04FF0500383F31188BFF36F8F10
:101FA000BFF34F8FFEE701F0B3FBEFF311894FF062
:101FB000500383F31188BFF36F8FBFF34F8FAA6B6A
:101FC000EB6B9A4206D3022C04D0002089F31188CF
:101FD000BDE8F88395F845804FFA88F8AB6B224648
:101FE00039462846FFF7CFFDB8F1FF3F06D008F18C
:101FF00001035BB285F845300120E7E76B6A0BB956
:102000000120E3E705F1240000F0F6FC18B126B149
:1020100001203060DAE70120D8E70120D6E7F0B5EB
:1020200085B0019290B10F460446C1B100F07EFD2B
:10203000064600BB019B002B5ED04FF0500383F39C
:102040001188BFF36F8FBFF34F8FFEE74FF0500340
:1020500083F31188BFF36F8FBFF34F8FFEE7036CDD
:10206000002BE3D04FF0500383F31188BFF36F8F41
:10207000BFF34F8FFEE700263EE039462046FFF7CC
:10208000BDFD013DA563236923B901F03DFA01209F
:1020900005B0F0BD04F1100000F0AEFC0028F4D053
:1020A0004FF0E0234FF08052C3F8042DBFF34F8F61
:1020B000BFF36F8FE9E701F027FA0020E8E702A8F5
:1020C00000F0E0FC012621E0002384F8443029E000
:1020D000002384F845302BE02046FFF7A1FD00F0F7
:1020E0006BFB09E02046FFF79BFD00F065FB2046F7
:1020F000FFF73CFD00283FD101F0E4F9A56B002D6E
:10210000BBD1019B002BD6D0002ED8D001F0FCF91A
:1021100000F0B8FA01F0D6F994F844305BB2B3F1AC
:10212000FF3FD1D094F845305BB2B3F1FF3FCFD041
:1021300001F0EAF901A902A800F0B0FC0028D1D111
:102140002046FFF713FD0028C6D0019904F12400B2
:1021500000F01EFC2046FFF763FD00F02DFB002879
:10216000CAD14FF0E0234FF08052C3F8042DBFF3E3
:102170004F8FBFF36F8FBFE7002089E70023072B46
:102180000CD8074A52F833200AB10133F7E7044A62
:1021900042F8331002EBC30358607047704700BF2A
:1021A0007401002070B504460D46164601F08AF908
:1021B00094F844305BB2B3F1FF3F0DD094F8453052
:1021C0005BB2B3F1FF3F0BD001F09EF9A36B5BB1A3
:1021D0002046FFF725FD70BD002384F84430EDE76D
:1021E000002384F84530EFE73246294604F1240005
:1021F00000F0E6FBECE70000084B1B681B6823B906
:10220000074B4FF0FF321A607047044B1B68DB68C6
:10221000DB685A68024B1A60704700BFB8010020A3
:10222000600600202DE9F04780460D461746994686
:10223000089EDDF824A00A9C9200A521206B01F0E5
:10224000F1FA236B07F18042013A03EB820727F092
:102250000707B5B34FF0000CBCF10F0F0BD815F802
:102260000C2004EB0C0383F8342015F80C3013B168
:102270000CF1010CF0E7002384F84330372E00D92D
:102280003726E662E66400252565201DFFF725FC5C
:1022900004F11800FFF721FC2461C6F13806A6619D
:1022A0006462656584F858504A464146384601F0F4
:1022B000DBF82060BAF1000F01D0CAF80040BDE899
:1022C000F087002384F83430D8E7000038B50024C4
:1022D00007E004EB840293000E481844FFF7F2FB7A
:1022E0000134372CF5D90C4D2846FFF7EBFB0B4C8E
:1022F0002046FFF7E7FB0A48FFF7E4FB0948FFF732
:10230000E1FB0948FFF7DEFB084B1D60084B1C6032
:1023100038BD00BFC0010020340600204806002060
:102320006C0600209806002084060020B8010020DA
:10233000BC01002010B5044601F0C4F8224A13681D
:1023400001331360214B1B685BB1214B1B686BB9D8
:102350001E4B1B68DA6AE36A9A4207D81B4B1C6063
:1023600004E01A4B1C601368012B29D0194A13682A
:10237000013313606364E06A174B1B68984201D90C
:10238000154B186000EB8000211D144B03EB8000FF
:10239000FFF7A6FB01F0B8F80D4B1B687BB10B4BA8
:1023A0001B68DA6AE36A9A4209D24FF0E0234FF0E1
:1023B0008052C3F8042DBFF34F8FBFF36F8F10BD52
:1023C000FFF784FFD2E700BF20060020B401002001
:1023D000800600202C06002030060020C0010020CE
:1023E00010B5044690F8593063B1012B11D0022B7F
:1023F0000ED04FF0500383F31188BFF36F8FBFF3FC
:102400004F8FFEE7006B00F0B3FF204600F0B0FFF7
:1024100010BD00F0ADFFFBE70F4B1B68D3B110B54B
:1024200001F050F80D4BDB68DC68201DFFF77CFBEA
:102430000B4A1368013B1360074A1368013B1360A2
:1024400001F062F82046FFF7CBFF034B1B68002B1F
:10245000E6D110BD704700BF24060020980600207A
:102460002006002008B5FFF7D7FF074B1B68012B9C
:10247000F9D94FF0E0234FF08052C3F8042DBFF399
:102480004F8FBFF36F8FEEE7C001002070B5044699
:102490000D46174B1E68174B18680430FFF744FBB6
:1024A000B4F1FF3F0DD03444124B1B685C60A64270
:1024B00010D9114B18680F4B19680431FFF71BFB3B
:1024C00070BD002DEFD00B4B196804310B48FFF79E
:1024D00007FBF5E70A4B1868064B19680431FFF74C
:1024E0000AFB084B1B68A342EAD9064B1C60E7E7CE
:1024F000AC060020B4010020BC01002084060020AE
:10250000B80100206006002030B587B00B9C7CB17C
:102510000C9DB5B15C250495049D5C2D1AD04FF03F
:10252000500383F31188BFF36F8FBFF34F8FFEE724
:102530004FF0500383F31188BFF36F8FBFF34F8FBA
:10254000FEE74FF0500383F31188BFF36F8FBFF3A3
:102550004F8FFEE7049D0C9D2C63022485F85940A3
:1025600000240394029505AC01940A9C0094FFF7A3
:1025700059FE0C98FFF7DEFE059807B030BD2DE937
:10258000F04385B00746884614461E46900000F08A
:1025900071FE00B381465C2000F06CFE0546B0B1D0
:1025A000C0F83090E5B1002385F8593003930295C7
:1025B0000D9B01930C9B00933346224641463846BF
:1025C000FFF730FE2846FFF7B5FE012005E048463C
:1025D00000F0CEFEE6E74FF0FF3005B0BDE8F08337
:1025E0004FF0FF30F9E7000010B588B000240594E3
:1025F000069407AA06A905A800F0C0FD059B029352
:10260000069B019300942346079A18491848FFF740
:102610007BFF184B186040B100F04CFB012806D03E
:10262000B0F1FF3F18D008B010BD0020F6E74FF022
:10263000500383F31188BFF36F8FBFF34F8F0E4B9F
:102640004FF0FF321A600D4B01221A600C4B002232
:102650001A6000F0D1FFE6E74FF0500383F31188D2
:10266000BFF36F8FBFF34F8FFEE700BF94380008B2
:10267000652400085C06002060060020800600201B
:10268000AC060020024A136801331360704700BF94
:1026900028060020014B1868704700BFAC060020D8
:1026A000F8B53A4B1B68002B69D1394B1D680135D1
:1026B0001D60C5B9374B1B681B6843B14FF0500311
:1026C00083F31188BFF36F8FBFF34F8FFEE7314A5B
:1026D0001168314B186810601960304A1368013373
:1026E0001360FFF789FD2E4B1B68AB423DD90027D5
:1026F0002C4B1B68DB6A03EB83039A002A4B9B5825
:10270000012B00D90127294B1B68002B3CD0012746
:102710003AE001271F4B1B681B6843B31D4B1B6826
:10272000DB68DC6863689D4226D3261D3046FFF7D0
:10273000FBF9A36A1BB104F11800FFF7F5F9E36A8E
:102740001B4A1268934201D9194A136003EB8303B1
:102750009A00314614481044FFF7C2F9E26A114B5F
:102760001B68DB6A9A42D4D2D4E70027D2E70C4B2D
:102770004FF0FF321A60BBE7094A1360B8E70D4A11
:1027800013680133136000273846F8BD280600207F
:10279000AC060020B8010020BC0100206406002027
:1027A00060060020B4010020C0010020B006002017
:1027B000300600206806002038B5354B1B6843B949
:1027C0004FF0500383F31188BFF36F8FBFF34F8F28
:1027D000FEE700F077FE2E4B1A68013A1A601B687C
:1027E000002B4FD12B4B1B680BB900244BE000246E
:1027F000294B1B681BB3284BDB68DC6804F118000D
:10280000FFF792F9251D2846FFF78EF9E06A234B62
:102810001B68984201D9214B186000EB80002946C3
:102820001F4B03EB8000FFF75BF9E26A1D4B1B684F
:10283000DB6A9A42DCD31C4B01221A60D8E70CB148
:10284000FFF7DAFC194B1C6884B9174B1C68D4B12C
:102850004FF0E0234FF08052C3F8042DBFF34F8FA9
:10286000BFF36F8F01240EE0013C07D0FFF718FF84
:102870000028F9D00C4B01221A60F5E70B4B00221F
:102880001A60E2E7002400F03FFE204638BD00BF9A
:1028900028060020200600206C06002030060020BC
:1028A000C0010020B4010020B0060020680600200E
:1028B00010B5A8B10446104B1B6843B14FF050034C
:1028C00083F31188BFF36F8FBFF34F8FFEE7FFF7DE
:1028D000D9FE00212046FFF7D9FDFFF76DFF48B96B
:1028E0004FF0E0234FF08052C3F8042DBFF34F8F19
:1028F000BFF36F8F10BD00BF280600201F4B1B6861
:102900001BB11F4B01221A6070471D4B00221A6039
:102910001C4B1B6803EB83018A001B498A585AB978
:102920000BB1013BF6E74FF0500383F31188BFF37F
:102930006F8FBFF34F8FFEE703EB830082000A44E3
:1029400050684068506003EB830C4FEA8C020832F9
:10295000114488420BD003EB830291000A4A0A44D7
:102960005268D168094A1160064A1360704740688E
:1029700062469100044A0A445060ECE728060020B1
:10298000B006002030060020C0010020B401002065
:1029900058B110B50C46094A11681831FFF7ABF869
:1029A00001212046FFF772FD10BD4FF0500383F365
:1029B0001188BFF36F8FBFF34F8FFEE7B401002084
:1029C00038B570B10D4614460A4A11681831FFF740
:1029D00087F80CB14FF0FF3521462846FFF756FD2A
:1029E00038BD4FF0500383F31188BFF36F8FBFF3EF
:1029F0004F8FFEE7B401002038B5C368DC6824B30C
:102A000004F118052846FFF78FF8184B1B682BBBFD
:102A1000251D2846FFF788F8E06A154B1B68984289
:102A200001D9134B186000EB80002946114B03EBD2
:102A30008000FFF755F8E26A0F4B1B68DB6A9A4289
:102A400011D901200D4B186038BD4FF0500383F3AE
:102A50001188BFF36F8FBFF34F8FFEE729460848F9
:102A6000FFF73EF8E7E70020EEE700BF280600206A
:102A700030060020C0010020B4010020B006002074
:102A80006C060020034B1B680360034B1B6843600C
:102A9000704700BF64060020AC060020F8B5C8B13E
:102AA0000C460546F9B100F00DFD1B4B19686B682B
:102AB000C81A2268B2F1FF3F26D0184E36682F6838
:102AC000B74201D08B4224D9824215D8002323601B
:102AD00001241AE04FF0500383F31188BFF36F8F86
:102AE000BFF34F8FFEE74FF0500383F31188BFF31E
:102AF0006F8FBFF34F8FFEE75B1A134423602846A6
:102B0000FFF7C0FF002400E0002400F0FDFC204699
:102B1000F8BD0124F9E700BFAC06002064060020E0
:102B2000014B01221A607047B0060020054B1B685C
:102B300033B1054B1B680BB1002070470220704772
:102B400001207047800600202806002000283BD086
:102B500038B504461E4B1B68834208D04FF0500323
:102B600083F31188BFF36F8FBFF34F8FFEE7036DC1
:102B700043B94FF0500383F31188BFF36F8FBFF356
:102B80004F8FFEE7013B0365C16AC26C91421DD0C5
:102B90000BB1002038BD051D2846FEF7C5FFE06CCF
:102BA000E062C0F13803A3610A4B1B68984201D967
:102BB000084B186000EB80002946074B03EB8000B0
:102BC000FEF78EFF0120E5E7002070470020E1E7D7
:102BD000B401002030060020C0010020064B1A6816
:102BE00013682BB90123036023B9D36818687047B1
:102BF0000023F8E700207047B406002008B54160C4
:102C0000006191420CD8D21A83699A4201D3012003
:102C100008BD011D094B1868FEF76DFF0020F7E79E
:102C20009A4201D2994206D2011D054B1868FEF75F
:102C300062FF0020ECE70120EAE700BFB8060020B1
:102C4000B406002030B583B000F03CFC114B1B688B
:102C50001BB100F059FC03B030BD0F4D2846FEF704
:102C600031FF0E4C2046FEF72DFF0D4B1D600D4B26
:102C70001C60002300930C4B0C4A10210A20FFF724
:102C800059F8044B18600028E3D00949FFF776FA99
:102C9000DFE700BFD80700205C0700207007002096
:102CA000B4060020B806002088070020BC060020DB
:102CB0009C38000810B588B0FFF7C4FF124B1B68A2
:102CC000CBB100240594069407AA06A905A800F034
:102CD00061FA059B0293069B01930223009323460E
:102CE000079A0A490A48FFF70FFC0A4B186010B10F
:102CF000012008B010BD4FF0500383F31188BFF3DB
:102D00006F8FBFF34F8FFEE7D8070020A43800086D
:102D100019300008DC070020B8B19C46034618486B
:102D2000006858B300B585B000910192029305295F
:102D30001CDCFFF7FBFE022810D000231A46694670
:102D40000F480068FFF740F815E04FF0500383F399
:102D50001188BFF36F8FBFF34F8FFEE70023069AF2
:102D6000694607480068FFF72FF804E00023624631
:102D70006946FFF7EDF805B05DF804FB00207047E9
:102D8000D807002070B582B01B4B1B681A6862B36D
:102D9000DB681E68DC68251D2846FEF7C5FE236A31
:102DA0002046984794F8283013F0040FECD0A3691C
:102DB00033449E4207D26360246129460E4B186853
:102DC000FEF799FEE0E7002100910B4632462046CF
:102DD000FFF7A2FF0028D7D14FF0500383F31188EB
:102DE000BFF36F8FBFF34F8FFEE7044A10680249AD
:102DF0000860136002B070BDB4060020B806002061
:102E000038B50546FFF746FC0446074B1B6883426E
:102E100005D800232B60044B1C60204638BDFFF70B
:102E2000B1FF01232B60F6E78407002070B582B064
:102E300006460D4617490968C968CC68201DFEF78B
:102E400073FE94F828C01CF0040F08D12CF0010C7C
:102E500084F828C0236A2046984702B070BDA16953
:102E600033462A4631442046FFF7C8FE0028F1D0F9
:102E7000002100910B4632462046FFF74DFF002807
:102E8000E8D14FF0500383F31188BFF36F8FBFF386
:102E90004F8FFEE7B406002070B582B006460C46A0
:102EA000FFF7F0FB01A8FFF7ABFF019B33BB054623
:102EB0000CB9B04219D224B1124A12681268DAB9B8
:102EC00001242246711B104B1868FFF76BF9FFF7BE
:102ED00073FCA8B94FF0E0234FF08052C3F8042DE3
:102EE000BFF34F8FBFF36F8F0AE0FFF765FC2946F2
:102EF0003046FFF79BFF03E01C46E2E7FFF75CFC70
:102F000002B070BDB8060020D807002010B588B008
:102F100002E0049B002B0FDA002204A93D4B186845
:102F2000FFF77DF8002873D0049B002BF1DA079996
:102F30000698059B9847ECE7069C636913B1201D32
:102F4000FEF7F2FD03A8FFF75BFF049B092BE3D814
:102F5000DFE803F00505053037500505303794F8F4
:102F6000283043F0010384F82830059BA16902460C
:102F700019442046FFF742FE0028CDD0236A2046A0
:102F8000984794F8283013F0040FC5D0A2690021A7
:102F900000910B46059802442046FFF7BDFE00282D
:102FA000BAD14FF0500383F31188BFF36F8FBFF393
:102FB0004F8FFEE794F8283023F0010384F828307F
:102FC000AAE794F8283043F0010384F828300599E3
:102FD000A16131B10346024601442046FFF70EFECF
:102FE0009AE74FF0500383F31188BFF36F8FBFF35D
:102FF0004F8FFEE794F8283013F0020F04D023F02F
:10300000010384F8283087E7204600F0B1F983E710
:1030100008B010BDD807002000B583B001A8FFF7A5
:10302000DDFD0199FFF738FFFFF770FFF6E708B500
:103030004FF0E0231B69FFF779FD012800D108BD9F
:1030400000F0B0FAFBE70000EFF305832BB9064B65
:10305000186828B901221A6070476FF005007047A0
:103060004FF0FF30704700BF3C0A0020EFF30583AC
:1030700073B90A4B1B68012B0DD110B50024084B06
:10308000DC77064B02221A60FFF7AEFA204610BD2D
:103090006FF0050070474FF0FF3070473C0A00208A
:1030A00000ED00E0F0B587B000240594EFF305844F
:1030B00074BB68B322B31568936903B918235C1E07
:1030C000372C49D8546814F0010F47D156696EB1B6
:1030D0004FEA960C94682CB1D7685B2F02D9176918
:1030E00007B1C6B92CB14FF0FF340EE04FF0800CA1
:1030F000F0E7D4688CB9146994B14FF0FF3404E060
:103100001546002418234FF0800C012C0AD0ACB1D6
:10311000059807B0F0BD0124F7E74FF0FF34F4E75E
:103120000024F2E7146992680292019400930B461E
:1031300062462946FFF7E8F90590E9E705AA0192FA
:1031400000930B461FFA8CF22946FFF718FA012864
:10315000DED000230593DBE70020DAE70020D8E784
:1031600008B5EFF3058333B908B9002008BDFFF7B0
:103170009FFB0020FAE76FF00500F7E7034B0360C1
:10318000034B0B6080231360704700BFE0090020F1
:10319000E0070020034B0360034B0B604FF4807388
:1031A00013607047400E0020400A0020124A12F0BF
:1031B000070F1ED0D11D21F00701C1F57053134434
:1031C0000A460E480260002141601344083B23F088
:1031D00007030B48036059601960991A5160136026
:1031E000084B1960084B1960084B4FF000421A60F9
:1031F00070474FF47053E4E7A00E0020B44A00205B
:103200009C0E0020A84A0020A44A0020A04A0020CA
:10321000164B1A461B688342FBD3516802EB010C24
:10322000844509D0416800EB010C634509D0036077
:10323000904219D0106070474068014451601046B8
:10324000F0E710B40A4C2468A3420BD05B68194421
:10325000416013681B680360904200D010605DF805
:10326000044B70470460F7E7704700BFB44A002082
:103270009C0E002070B50546FFF704FA364B1B681C
:10328000A3B1364B1B681D424ED135B1083515F040
:10329000070F02D025F007050835002D46D0304B2A
:1032A0001B68AB4251D32F4A146804E0FFF77EFF3E
:1032B000E7E722461C466368AB4202D22368002B34
:1032C000F7D1254B1B68A34241D016680836236806
:1032D000136063685B1B102B10D9601910F0070F87
:1032E00008D04FF0500383F31188BFF36F8FBFF303
:1032F0004F8FFEE743606560FFF78AFF62681849F9
:103300000B689B1A0B60184909688B4201D2164959
:103310000B60124B1B681343636000232360134A46
:1033200013680133136002E0002600E00026FFF777
:1033300043FA16F0070F0CD04FF0500383F31188B7
:10334000BFF36F8FBFF34F8FFEE70026EFE7002636
:10335000EDE7304670BD00BF9C0E0020A04A002063
:10336000A44A0020B44A0020A84A0020AC4A002009
:10337000002834D038B50446A0F1080550F8043CC4
:10338000174A1268134208D14FF0500383F3118893
:10339000BFF36F8FBFF34F8FFEE750F8081C41B1AA
:1033A0004FF0500383F31188BFF36F8FBFF34F8F3C
:1033B000FEE723EA020340F8043CFFF763F954F800
:1033C000041C084A13680B4413602846FFF720FFCB
:1033D000054A136801331360FFF7EEF938BD7047F3
:1033E000A04A0020A44A0020B04A002082B0002356
:1033F00001930D4B1B68B3F1FF3F08D04FF0500312
:1034000083F31188BFF36F8FBFF34F8FFEE74FF049
:10341000500383F31188BFF36F8FBFF34F8F019B6E
:10342000002BFCD002B070470C0000200848006858
:10343000006880F308884FF0000080F3148862B6BB
:1034400061B6BFF34F8FBFF36F8F00DF00BF000087
:1034500008ED00E0DFF80C00016841F47001016044
:103460007047000088ED00E04FF0807340F8043CA6
:1034700021F0010140F8081C054B40F80C3C40F8D5
:10348000202C6FF0020340F8243C4438704700BF02
:10349000ED33000800000000000000000000000004
:1034A000074B19680868B0E8F04F80F30988BFF34C
:1034B0006F8F4FF0000080F311887047AFF30080EA
:1034C000B40100204FF0500383F31188BFF36F8FD6
:1034D000BFF34F8F0B4A136801331360012B00D0E9
:1034E00070474FF0E023D3F8043D13F0FF0FF7D0FF
:1034F0004FF0500383F31188BFF36F8FBFF34F8FEB
:10350000FEE700BF0C000020094B1B6843B94FF0D9
:10351000500383F31188BFF36F8FBFF34F8FFEE724
:10352000013B034A13600BB983F31188704700BF56
:103530000C0000200000000000000000000000005F
:10354000EFF30980BFF36F8F154B1A681EF0100F51
:1035500008BF20ED108A20E9F04F10602DE9090026
:103560004FF0500080F31188BFF34F8FBFF36F8F80
:10357000FFF7C4F94FF0000080F3118809BC196807
:103580000868B0E8F04F1EF0100F08BFB0EC108ACA
:1035900080F30988BFF36F8F704700BFAFF30080DF
:1035A000B401002008B54FF0500383F31188BFF336
:1035B0006F8FBFF34F8FFFF773F828B14FF0E02301
:1035C0004FF08052C3F8042D002383F3118808BD07
:1035D0004FF0E022002313619361054B1B680549FE
:1035E000A1FB03139B09013B536107231361704740
:1035F00008000020D34D62104FF0E023D3F8002DD7
:103600003D4B9A421CD04FF0E023D3F8002D3B4BAA
:103610009A421ED030B583B0394B1A78D2B201929B
:10362000FF221A701B78DBB28DF803309DF803304F
:1036300003F05003334A1370334B07221A601BE028
:103640004FF0500383F31188BFF36F8FBFF34F8F99
:10365000FEE74FF0500383F31188BFF36F8FBFF382
:103660004F8FFEE7284A1368013B13609DF8033033
:103670005B00DBB28DF803309DF8033013F0800F50
:10368000F0D1214B1B68032B08D04FF0500383F37C
:103690001188BFF36F8FBFF34F8FFEE71B021A4AEB
:1036A000136003F4E0631360019BDBB2144A1370F0
:1036B0004FF0E024D4F8203D43F47003C4F8203DDB
:1036C000D4F8203D43F07043C4F8203DFFF780FF5D
:1036D00000250E4B1D60FFF7BDFED4F8343F43F0CC
:1036E0004043C4F8343FFFF7A1FEFFF707F9FFF7A7
:1036F0007DFE284603B030BD71C20F4170C20F413C
:1037000000E400E0BC4A0020C04A00200C00002079
:10371000EFF305830F2B0FD9114A9B5CDBB2114AE3
:1037200012789A4208D94FF0500383F31188BFF3FF
:103730006F8FBFF34F8FFEE74FF0E023D3F80C3DC0
:1037400003F4E063084A1268934208D94FF050032B
:1037500083F31188BFF36F8FBFF34F8FFEE770477E
:10376000F0E300E0BC4A0020C04A0020DFF834D07B
:103770000D480E490E4A002302E0D458C4500433C9
:10378000C4188C42F9D30B4A0B4C002301E01360A0
:103790000432A242FBD3FEF78BF900F011F8FCF7DC
:1037A000F9FE7047000002200000002010000020F9
:1037B000BC38000810000020C44A0020FEE70000CA
:1037C00070B50D4D0D4C641BA4100026A64209D106
:1037D0000B4D0C4C00F02EF8641BA4100026A642E2
:1037E00005D170BD55F8043B98470136EEE755F812
:1037F000043B98470136F2E7B4380008B4380008B3
:10380000B4380008B83800080A44914200F1FF3388
:1038100000D1704710B511F8014B03F8014F9142E8
:10382000F9D110BD02440346934200D1704703F81A
:10383000011BF9E7F8B500BFF8BC08BC9E4670470D
:0C384000F8B500BFF8BC08BC9E467047FD
:10384C0064656661756C745461736B004C38000868
:10385C00000000000000000000000000000000005C
:10386C000002000018000000000000000000000032
:10387C000000000000000000010203040607080914
:10388C00000000000102030449444C450000000004
:10389C00546D725100000000546D72205376630019
:0838AC0054C9FF7F0100000078
:0438B400B501000852
:0438B8009101000872
:1038BC0001000000100000000024F400AAAAAAAA2B
:040000050800376D4B
:00000001FF
